S01800004175746F6E6F6D6F7573206D6F746F722E7372656381
S11300000C942A000C9447000C9447000C9447006D
S11300100C9447000C9447000C9447000C94470040
S11300200C9447000C9447000C9447000C94470030
S11300300C9447000C9447000C9447000C94470020
S11300400C9447000C9447000C9447000C94470010
S11300500C94470011241FBECFE5D4E0DEBFCDBF12
S113006010E0A0E6B0E0E0EAF4E002C005900D92F2
S1130070A636B107D9F720E0A6E6B0E001C01D928C
S1130080A438B207E1F70E9422020C944E020C94A9
S11300900000BB9A81B3806B81BBB89AB99A83B7CD
S11300A0896683BF85B5896685BD8FB5836A8FBD33
S11300B08EB589608EBD0895009751F46115710560
S11300C051F4C098C1981BBC1ABC19BC18BC18C107
S11300D099230CF411C177230CF441C09C01261B15
S11300E0370B71F49C01992324F422273327281B0E
S11300F0390B3BBD2ABD19BC18BC83E088BB00C1C9
S113010012161306A4F4AC01992324F444275527AA
S1130110481B590B5BBD4ABDC901332324F488270E
S11301209927821B930B99BD88BD81E088BB33233B
S11301300CF0E6C0CB01992324F488279927861B69
S1130140970B9BBD8ABDC901992324F4882799275D
S1130150821B930B99BD88BD83E088BBD1C0181660
S113016019060CF444C0C4C09C01260F371F211586
S1130170310571F4CB01992324F488279927861B30
S1130180970B99BD88BD1BBC1ABC83E088BBB8C063
S113019012161306A4F4A901332324F44427552783
S11301A0421B530B5BBD4ABDAB01772324F44427A8
S11301B05527461B570B59BD48BD43E048BB332365
S11301C00CF09EC0A901332324F444275527421B75
S11301D0530B5BBD4ABD9C01992324F4222733278A
S11301E0281B390B39BD28BD82E088BB89C09C011E
S11301F0260F371F2115310571F41BBC1ABCCB0126
S1130200992324F488279927861B970B99BD88BDC9
S113021081E088BB75C012161306A4F4A901332328
S113022024F444275527421B530B5BBD4ABDAC0144
S1130230992324F444275527481B590B59BD48BD1D
S113024081E088BB33230CF05BC0C901992324F4FB
S113025088279927821B930B9BBD8ABDCB019923C9
S113026024F488279927861B970B99BD88BD18BA53
S113027047C09C01261B370B71F49C01992324F47D
S113028022273327281B390B3BBD2ABD19BC18BCB8
S113029082E088BB35C0121613069CF4AB017723A9
S11302A024F444275527461B570B5BBD4ABDA901BF
S11302B0332324F444275527421B530B59BD48BD0F
S11302C018BA3323ECF4AC01992324F444275527BA
S11302D0481B590B5BBD4ABDC901992324F48827E7
S11302E09927821B930B99BD88BD82E088BB08C007
S11302F099230CF4BECF7BCF77230CF035CFB9CF45
S113030080E090E0089590BD89B980E18AB98EE8D3
S113031080BD089580916E0090916F0081309105A9
S113032069F480E092E0909365008093640086E62F
S113033093E0909363008093620008958230910566
S113034069F480E092E0909365008093640089E909
S113035090E0909363008093620008958330910548
S113036069F48FEF92E0909365008093640080E0DD
S113037092E0909363008093620008958430910525
S113038069F480E091E0909365008093640080E0DC
S113039092E0909363008093620008958530910504
S11303A059F480E092E09093650080936400909308
S11303B063008093620008958630910569F489E9A9
S11303C092E0909365008093640080E092E09093C3
S11303D063008093620008958730910569F486E68E
S11303E091E0909365008093640080E092E09093A4
S11303F063008093620008958830910559F480E089
S113040091E09093650080936400109263001092D1
S113041062000895099751F480E091E0909365009B
S113042080936400109263001092620008955F9BB1
S1130430FECF8CB190E090936F0080936E000E9489
S11304408A0108950E944900899A809160009091E0
S113045061000E948301C5E0D0E0D0936F00C09397
S11304606E000E9417028091640090916500880FCD
S1130470991F8F5F934090938300809382006091D3
S1130480620070916300660F771F6F5F7340709313
S11304907300609372000E945C00DFCFF894FFCF7A
S10904A00C000002000242
S9030000FC
