S01300004E52465F524543454956452E73726563C9
S11300000C9434000C9446000C9446000C94460066
S11300100C9446000C9446000C9446000C94460044
S11300200C9446000C9446000C9446000C94460034
S11300300C9446000C9446000C9446000C94460024
S11300400C9446000C9446000C9446000C94460014
S11300500C944600CB00CF00D300D700DB00DF00B8
S1130060E300E700EB00EF0011241FBECFE5D4E06E
S1130070DEBFCDBF20E0A0E6B0E001C01D92A436F3
S1130080B207E1F70E94A1010C94FB010C9400005B
S113009087B3826B87BBBE988DB181658DB9C198DA
S11300A008958FB9779BFECF8FB10895CF93DF93D7
S11300B0D62FC4988F7180620E945100C82F8D2F53
S11300C00E945100C49A8C2FDF91CF9108958F9292
S11300D09F92AF92BF92CF92DF92EF92FF920F93D3
S11300E01F93CF93DF935D9BFECF6CB9181619064F
S11300F00CF07FC020E030E040E0EAE0F0E028C00F
S1130100442309F476C0CAE0D0E00F2EF8E38F2E22
S1130110F02D0F2EF7E39F2EF02D0F2EF6E3AF2ECA
S1130120F02D0F2EF5E3BF2EF02D0F2EF4E3CF2E7E
S1130130F02D0F2EF3E3DF2EF02D0F2EF2E3EF2E32
S1130140F02D0F2EF1E3FF2EF02D00E319E317C07D
S1130150B901660F771F220F331F220F331F220F9F
S1130160331F260F371FBF010E94CD01280F391FEF
S1130170862F972F4F5F1816190654F3C1CFC90164
S1130180BE010E94CD018A30910560F5FC01E65D57
S1130190FF4F0C94E1015D9BFECF0CB923C05D9B26
S11301A0FECFFCB81FC05D9BFECFECB81BC05D9BAF
S11301B0FECFDCB817C05D9BFECFCCB813C05D9BEF
S11301C0FECFBCB80FC05D9BFECFACB80BC05D9B2F
S11301D0FECF9CB807C05D9BFECF8CB803C05D9B6F
S11301E0FECF1CB9C901BE010E94CD019B01415043
S11301F031F65D9BFECF8AE08CB9DF91CF911F91E0
S11302000F91FF90EF90DF90CF90BF90AF909F90B1
S11302108F900895C49882EE0E945100C49A089564
S11302200F931F93CF93DF93C49881E60E945100EC
S11302308FEF0E945100D82F8FEF0E945100082F9A
S11302408FEF0E945100C82F8FEF0E945100182F8A
S1130250C49A87E893E10197F1F700C000000E9477
S11302600A0187E893E10197F1F700C000008D2FA0
S113027090E0902B90936300809362008C2F90E029
S1130280912B909361008093600087E893E101973C
S1130290F1F700C000000E940A0187E893E101978A
S11302A0F1F700C00000DF91CF911F910F910895E5
S11302B061E081E00E94560061E082E00E94560005
S11302C063E083E00E94560068E785E00E945600E0
S11302D066E286E00E94560060E08DE10E945600CE
S11302E0C4988AE20E94510081E00E94510081E09A
S11302F00E94510081E00E94510081E00E9451005F
S113030081E00E945100C49AC49880E30E94510085
S113031081E00E94510081E00E94510081E00E942E
S1130320510081E00E94510081E00E945100C49A72
S113033064E081E10E9456006FE780E00E9456006D
S1130340089584B3806C84BB81B3856181BB8D9A2D
S11303508C9A80B58F7780BD10BC83E389B980B552
S1130360866880BD529880B510BC539A0E9448009C
S11303708F9AC19A0E9458010E94100161E68091EF
S11303806200909163000E94670062E680916000C1
S1130390909161000E946700ECCF97FB072E16F442
S11303A0009407D077FD09D00E94E70107FC05D02F
S11303B03EF4909581959F4F0895709561957F4F78
S11303C00895EE0FFF1F0590F491E02D0994AA1BE8
S11303D0BB1B51E107C0AA1FBB1FA617B70710F02C
S11303E0A61BB70B881F991F5A95A9F7809590955E
S10D03F0BC01CD010895F894FFCF7D
S9030000FC
