:100000000C942A000C943F000C943F000C943F0089
:100010000C943F000C943F000C943F000C943F0064
:100020000C943F000C943F000C943F000C943F0054
:100030000C943F000C943F000C943F000C943F0044
:100040000C943F000C943F000C943F000C943F0034
:100050000C943F0011241FBECFE5D4E0DEBFCDBF1E
:1000600010E0A0E6B0E0E8EFF1E002C005900D92EC
:10007000A436B107D9F70E94DA000C94FA000C9468
:10008000000087B3826B87BBBE988DB181658DB947
:10009000BC9AC19808958FB9779BFECF8FB1089510
:1000A000CF93DF93D62FC4988F7180620E944B004C
:1000B000C82F8D2F0E944B00C49A8C2FDF91CF91B7
:1000C0000895C49881EE0E944B00C49A089561E09F
:1000D00081E00E94500061E082E00E94500063E0F5
:1000E00083E00E94500068E785E00E94500066E2CD
:1000F00086E00E94500060E08DE10E945000C498AC
:100100008AE20E944B0081E00E944B0081E00E9445
:100110004B0081E00E944B0081E00E944B0081E097
:100120000E944B00C49AC49880E30E944B0081E077
:100130000E944B0081E00E944B0081E00E944B0036
:1001400081E00E944B0081E00E944B00C49A6EE760
:1001500080E00E94500064E184E00E9450006EE75D
:1001600087E00E94500008950F931F93CF93DF9371
:10017000082F192FD62FC72FC49880EA0E944B0052
:10018000802F0E944B00812F0E944B008D2F0E94D8
:100190004B008C2F0E944B00C49A87E893E1019793
:1001A000F1F700C000000E946100DF91CF911F9124
:1001B0000F910895789480B58F7780BD10BC83E34C
:1001C00089B980B5866880BD529880B5877880BD32
:1001D000539A0E9441008F9AC19A0E9467006091D1
:1001E00060007091610080916200909163000E94B4
:0801F000B400F2CFF894FFCF38
:0401F8005802EC03BA
:00000001FF
