:100000000C942A000C943C000C943C000C943C0092
:100010000C943C000C943C000C943C000C943C0070
:100020000C943C000C943C000C943C000C943C0060
:100030000C943C000C943C000C9448000C943C0044
:100040000C943C000C943C000C943C000C943C0040
:100050000C943C0011241FBECFE5D4E0DEBFCDBF21
:1000600020E0A0E6B0E001C01D92A037B207E1F7A2
:100070000E94E1010C9409020C94000087B1806693
:1000800087B9329A0895379A339A359A369A0895ED
:100090001F920F920FB60F9211242F933F938F93BD
:1000A0009F9385B190E0909361008093600024B1AC
:1000B00030E030936B0020936A0085B190E0880FA8
:1000C000991F880F991F022E232F000C221F330B1C
:1000D000000C221F331F822B932B9093650080937B
:1000E000640092509C01992314F42F5F3F4F359583
:1000F0002795C9014996C39728F030936D00209346
:100100006C0004C010926D0010926C0087B18036B4
:1001100019F0813661F015C080916C0090916D00EE
:10012000909367008093660081E687B90AC080914A
:100130006C0090916D00909369008093680080E658
:1001400087B99F918F913F912F910F900FBE0F9084
:100150001F9018959C01225E3F4F2D33310508F406
:1001600020C19B01225E3F4F2D33310508F405C1AC
:1001700099230CF444C077230CF41BC107C060E042
:1001800070E004C080E090E060E070E09C01261B1D
:10019000370B59F49C01992324F422273327281B79
:1001A000390B2CBF13BC18BAEEC01216130694F408
:1001B000AC01992324F444275527481B590B4CBF05
:1001C000A901332324F444275527421B530B43BD75
:1001D00042E048BB33230CF0D6C0AB01772324F4B4
:1001E00044275527461B570B4CBFA901332324F442
:1001F00044275527421B530B43BD18BAC4C077236D
:100200000CF4C6C09C01260F371F2115310559F487
:100210009B01772324F422273327261B370B23BD8A
:100220001CBE18BA28C0121613068CF4A901332379
:1002300024F444275527421B530B4CBFAB017723B3
:1002400024F444275527461B570B43BD18BA3323C4
:1002500094F4A901332324F444275527421B530B5C
:100260004CBF9C01992324F422273327281B390BE8
:1002700023BD21E028BB99230CF441C016161706B4
:100280000CF49CC09B01280F391F2115310561F426
:100290001CBE9B01772324F422273327261B370B10
:1002A00023BD22E028BB78C01216130694F4A901DE
:1002B000332324F444275527421B530B4CBFAC0176
:1002C000992324F444275527481B590B43BD42E08A
:1002D00048BB33230CF060C0A901332324F4442726
:1002E0005527421B530B4CBF9B01772324F4222735
:1002F0003327261B370B23BD23E028BB4DC0161622
:1003000017060CF45BC09C01261B370B61F49C01A3
:10031000992324F422273327281B390B2CBF13BC25
:1003200081E088BB4BC01216130694F4AB0177230F
:1003300024F444275527461B570B4CBFA9013323F0
:1003400024F444275527421B530B43BD43E048BBCD
:100350003323A4F5AC01992324F444275527481BE3
:10036000590B4CBFC901992324F488279927821B74
:10037000930B83BD81E088BB21C099230CF0FFCE95
:1003800060E070E03CCF181619060CF477CF3ACF36
:1003900099230CF077CFB7CF181619060CF0B3CF0E
:1003A0000DC0CB014E96CD9708F4ECCE80E090E0E6
:1003B000DFCE181619060CF461CF64CF80E090E010
:1003C0000895BB9A8F9AB89AB99A83B7896683BF02
:1003D00085B5896685BD0E943E0078940E944300E1
:1003E000809166009091670090936F0080936E00FB
:1003F0000E944300609168007091690070936300EF
:100400006093620080916E0090916F000E94AA003C
:06041000E5CFF894FFCFD8
:00000001FF
