:100000000C943A000C944C000C944C000C944C0052
:100010000C944C000C944C000C944C000C944C0030
:100020000C944C000C944C000C944C000C944C0020
:100030000C944C000C944C000C944C000C944C0010
:100040000C944C000C944C000C944C000C944C0000
:100050000C944C007F00840089008E00930098006F
:100060009D00A200A700AC00B100B600BB00C0001C
:10007000C500CA0011241FBECFE5D4E0DEBFCDBF4E
:1000800020E0A0E6B0E001C01D92A136B207E1F782
:100090000E9458010C9489010C94000087B3826B74
:1000A00087BBBE988DB181658DB9C19808958FB910
:1000B000779BFECF8FB10895C4980E9457008FEFB1
:1000C0000E945700C49A0895CF93DF93D62FC49807
:1000D0008F7180620E945700C82F8D2F0E94570099
:1000E000C49A8C2FDF91CF91089590E080319105D3
:1000F00008F054C0FC01E65DFF4F0C9483015D9B4A
:10010000FECF80E38CB908955D9BFECF81E38CB96F
:1001100008955D9BFECF82E38CB908955D9BFECF71
:1001200083E38CB908955D9BFECF84E38CB9089579
:100130005D9BFECF85E38CB908955D9BFECF86E382
:100140008CB908955D9BFECF87E38CB908955D9BC4
:10015000FECF88E38CB908955D9BFECF89E38CB90F
:1001600008955D9BFECF81E48CB908955D9BFECF21
:1001700082E48CB908955D9BFECF83E48CB9089529
:100180005D9BFECF84E48CB908955D9BFECF85E432
:100190008CB908955D9BFECF86E48CB90895CF930A
:1001A000C82F5D9BFECF6CB95D9BFECF89E08CB9FB
:1001B0008C2F82958F700E9475008C2F8F700E94FB
:1001C00075005D9BFECF8AE08CB9CF910895C498ED
:1001D00082EE0E945700C49A0895CF930E94E700D0
:1001E00082E48A95F1F700C0C49881E60E94570026
:1001F0008FEF0E945700C82F87E00E945C00809319
:10020000600062E60E94CF0087E10E945C0080935C
:10021000600063E40E94CF008C2FCF91089560E0CE
:1002200081E00E94640061E082E00E94640063E07B
:1002300083E00E94640069E085E00E94640066E259
:1002400086E00E94640061E08DE10E946400C49831
:100250008AE20E94570081E00E94570081E00E94DC
:10026000570081E00E94570081E00E94570081E022
:100270000E945700C49AC49880E30E94570081E00E
:100280000E94570081E00E94570081E00E945700C1
:1002900081E00E94570081E00E945700C49A61E00B
:1002A00081E10E9464006FE780E00E94640008958D
:1002B00080B58F7780BD10BC83E389B980B586682F
:1002C00080BD529880B510BC539A0E944E008F9A00
:1002D000CAE0C19A0E940F010E94ED005D9BFECF13
:1002E0008CB95D9BFECFCCB98B3699F782B3805821
:1002F00082BB2FE986E891E0215080409040E1F7F1
:1003000000C00000E6CFEE0FFF1F0590F491E02D36
:060310000994F894FFCFF0
:00000001FF
