:100000000C943A000C944C000C944C000C944C0052
:100010000C944C000C944C000C944C000C944C0030
:100020000C944C000C944C000C944C000C944C0020
:100030000C944C000C944C000C944C000C944C0010
:100040000C944C000C944C000C944C000C944C0000
:100050000C944C00810086008B00900095009A0063
:100060009F00A400A900AE00B300B800BD00C2000C
:10007000C700CC0011241FBECFE5D4E0DEBFCDBF4A
:1000800020E0A0E6B0E001C01D92A136B207E1F782
:100090000E9463010C9490010C94000087B3826B62
:1000A00087BBBE988DB181658DB9BC9AC198089502
:1000B0008FB90000779BFECF8FB10895C4980E943E
:1000C00058008FEF0E945800C49A0895CF93DF9391
:1000D000D62FC4988F7180620E945800C82F8D2F30
:1000E0000E945800C49A8C2FDF91CF91089590E020
:1000F0008031910508F054C0FC01E65DFF4F0C947F
:100100008A015D9BFECF80E38CB908955D9BFECF95
:1001100081E38CB908955D9BFECF82E38CB908958D
:100120005D9BFECF83E38CB908955D9BFECF84E396
:100130008CB908955D9BFECF85E38CB908955D9BD6
:10014000FECF86E38CB908955D9BFECF87E38CB923
:1001500008955D9BFECF88E38CB908955D9BFECF2B
:1001600089E38CB908955D9BFECF81E48CB9089535
:100170005D9BFECF82E48CB908955D9BFECF83E446
:100180008CB908955D9BFECF84E48CB908955D9B86
:10019000FECF85E48CB908955D9BFECF86E48CB9D3
:1001A0000895CF93C82F5D9BFECF6CB95D9BFECFAA
:1001B00089E08CB98C2F82958F700E9477008C2FEC
:1001C0008F700E9477005D9BFECF8AE08CB9CF9143
:1001D0000895C49881EE0E945800C49A089560E082
:1001E00081E00E94660061E082E00E94660063E0B8
:1001F00083E00E94660069E085E00E94660066E296
:1002000086E00E94660061E08DE10E946600C4986D
:100210008AE20E94580081E00E94580081E00E941A
:10022000580081E00E94580081E00E94580081E05F
:100230000E945800C49AC49880E30E94580081E04C
:100240000E94580081E00E94580081E00E945800FE
:1002500081E00E94580081E00E945800C49A61E049
:1002600081E10E9466006EE780E00E94660060E027
:1002700084E00E9466006EE787E00E9466000895B1
:10028000CF93C82F87E00E945E008093600061E6F4
:100290000E94D100C19A0E94E900C49880EA0E949D
:1002A00058008C2F0E945800C49A82E48A95F1F776
:1002B00000C087E00E945E008093600062E60E94BA
:1002C000D100CF91089580B58F7780BD10BC83E3B6
:1002D00089B980B5866880BD529880B5877880BD21
:1002E000539A0E944E008F9A0E94EF0087E40E946A
:1002F000400187E10E945E008093600063E40E94F9
:10030000D10087E00E945E008093600064E60E9456
:10031000D100EACFEE0FFF1F0590F491E02D099474
:04032000F894FFCF7F
:00000001FF
